:020000040000fa
:080000000002040000000000f2
:020000040000fa
:04000800e80200000a
:020000040000fa
:04000c00e802000006
:020000040000fa
:04001000e802000002
:020000040000fa
:04001400e8020000fe
:020000040000fa
:04001800e8020000fa
:020000040000fa
:04001c00e8020000f6
:020000040000fa
:04002000e8020000f2
:020000040000fa
:04002400e8020000ee
:020000040000fa
:04002800e8020000ea
:020000040000fa
:04002c00e8020000e6
:020000040000fa
:04003000e8020000e2
:020000040000fa
:04003400e8020000de
:020000040000fa
:04003800e8020000da
:020000040000fa
:04003c00e8020000d6
:020000040000fa
:04004000e8020000d2
:020000040000fa
:04004400e8020000ce
:020000040000fa
:04004800e8020000ca
:020000040000fa
:04004c00e8020000c6
:020000040000fa
:04005000e8020000c2
:020000040000fa
:04005400e8020000be
:020000040000fa
:04005800e8020000ba
:020000040000fa
:04005c00e8020000b6
:020000040000fa
:04006000e8020000b2
:020000040000fa
:04006400e8020000ae
:020000040000fa
:04006800e8020000aa
:020000040000fa
:04006c00e8020000a6
:020000040000fa
:04007000e8020000a2
:020000040000fa
:04007400e80200009e
:020000040000fa
:04007800e80200009a
:020000040000fa
:04007c00e802000096
:020000040000fa
:04008000e802000092
:020000040000fa
:04008400e80200008e
:020000040000fa
:04008800e80200008a
:020000040000fa
:04008c00e802000086
:020000040000fa
:04009000e802000082
:020000040000fa
:04009400e80200007e
:020000040000fa
:04009800e80200007a
:020000040000fa
:04009c00e802000076
:020000040000fa
:0400a000e802000072
:020000040000fa
:0400a400e80200006e
:020000040000fa
:0400a800e80200006a
:020000040000fa
:0400ac00e802000066
:020000040000fa
:0400b000e802000062
:020000040000fa
:0400b400e80200005e
:020000040000fa
:0400b800e80200005a
:020000040000fa
:0400bc00e802000056
:020000040000fa
:0400c000e802000052
:020000040000fa
:0400c400e80200004e
:020000040000fa
:0400c800e80200004a
:020000040000fa
:0400cc00e802000046
:020000040000fa
:0400d000e802000042
:020000040000fa
:0400d400e80200003e
:020000040000fa
:0400d800e80200003a
:020000040000fa
:0400dc00e802000036
:020000040000fa
:0400e000e802000032
:020000040000fa
:0400e400e80200002e
:020000040000fa
:0400e800e80200002a
:020000040000fa
:0400ec00e802000026
:020000040000fa
:0400f000e802000022
:020000040000fa
:0400f400e80200001e
:020000040000fa
:0400f800e80200001a
:020000040000fa
:0400fc00e802000016
:020000040000fa
:04010000e802000011
:020000040000fa
:04010400e80200000d
:020000040000fa
:04010800e802000009
:020000040000fa
:04010c00e802000005
:020000040000fa
:04011000e802000001
:020000040000fa
:04011400e8020000fd
:020000040000fa
:04011800e8020000f9
:020000040000fa
:04011c00e8020000f5
:020000040000fa
:04012000e8020000f1
:020000040000fa
:04012400e8020000ed
:020000040000fa
:04012800e8020000e9
:020000040000fa
:04012c00e8020000e5
:020000040000fa
:04013000e8020000e1
:020000040000fa
:04013400e8020000dd
:020000040000fa
:04013800e8020000d9
:020000040000fa
:04013c00e8020000d5
:020000040000fa
:04014000e8020000d1
:020000040000fa
:04014400e8020000cd
:020000040000fa
:04014800e8020000c9
:020000040000fa
:04014c00e8020000c5
:020000040000fa
:04015000e8020000c1
:020000040000fa
:04015400e8020000bd
:020000040000fa
:04015800e8020000b9
:020000040000fa
:04015c00e8020000b5
:020000040000fa
:04016000e8020000b1
:020000040000fa
:04016400e8020000ad
:020000040000fa
:04016800e8020000a9
:020000040000fa
:04016c00e8020000a5
:020000040000fa
:04017000e8020000a1
:020000040000fa
:04017400e80200009d
:020000040000fa
:04017800e802000099
:020000040000fa
:04017c00e802000095
:020000040000fa
:04018000e802000091
:020000040000fa
:04020800e802000008
:020000040000fa
:04020c00e802000004
:020000040000fa
:04021000e802000000
:020000040000fa
:04021400e8020000fc
:020000040000fa
:04021800e8020000f8
:020000040000fa
:04021c00e8020000f4
:020000040000fa
:04022000e8020000f0
:020000040000fa
:04022400e8020000ec
:020000040000fa
:04022800e8020000e8
:020000040000fa
:04022c00e8020000e4
:020000040000fa
:04023000e8020000e0
:020000040000fa
:04023400e8020000dc
:020000040000fa
:04023800e8020000d8
:020000040000fa
:04023c00e8020000d4
:020000040000fa
:04024000e8020000d0
:020000040000fa
:04024400e8020000cc
:020000040000fa
:04024800e8020000c8
:020000040000fa
:04024c00e8020000c4
:020000040000fa
:04025000e8020000c0
:020000040000fa
:04025400e8020000bc
:020000040000fa
:04025800e8020000b8
:020000040000fa
:04025c00e8020000b4
:020000040000fa
:04026000e8020000b0
:020000040000fa
:04026400e8020000ac
:020000040000fa
:04026800e8020000a8
:020000040000fa
:04026c00e8020000a4
:020000040000fa
:04027000e8020000a0
:020000040000fa
:04027400e80200009c
:020000040000fa
:04027800e802000098
:020000040000fa
:04027c00e802000094
:020000040000fa
:04028000e802000090
:020000040000fa
:04028400e80200008c
:020000040000fa
:04028800e802000088
:020000040000fa
:04028c00e802000084
:020000040000fa
:04029000e802000080
:020000040000fa
:04029400e80200007c
:020000040000fa
:04029800e802000078
:020000040000fa
:04029c00e802000074
:020000040000fa
:0402a000e802000070
:020000040000fa
:0402a400e80200006c
:020000040000fa
:0402a800e802000068
:020000040000fa
:0402ac00e802000064
:020000040000fa
:0402b000e802000060
:020000040000fa
:0402b400e80200005c
:020000040000fa
:0402b800e802000058
:020000040000fa
:0402bc00e802000054
:020000040000fa
:0402c000e802000050
:020000040000fa
:0402c400e80200004c
:020000040000fa
:0402c800e802000048
:020000040000fa
:0402cc00e802000044
:020000040000fa
:0402d000e802000040
:020000040000fa
:0402d400e80200003c
:020000040000fa
:0402d800e802000038
:020000040000fa
:0402dc00e802000034
:020000040000fa
:0402e000e802000030
:020000040000fa
:0402e400e80200002c
:020000040000fa
:0402e800e802000028
:020000040000fa
:0402ec00e802000024
:020000040000fa
:0402f000e802000020
:020000040000fa
:0402f400e80200001c
:020000040000fa
:0402f800e802000018
:020000040000fa
:0402fc00e802000014
:020000040000fa
:04030000e80200000f
:020000040000fa
:04030400e80200000b
:020000040000fa
:04030800e802000007
:020000040000fa
:04030c00e802000003
:020000040000fa
:04031000e8020000ff
:020000040000fa
:04031400e8020000fb
:020000040000fa
:04031800e8020000f7
:020000040000fa
:04031c00e8020000f3
:020000040000fa
:04032000e8020000ef
:020000040000fa
:04032400e8020000eb
:020000040000fa
:04032800e8020000e7
:020000040000fa
:04032c00e8020000e3
:020000040000fa
:04033000e8020000df
:020000040000fa
:04033400e8020000db
:020000040000fa
:04033800e8020000d7
:020000040000fa
:04033c00e8020000d3
:020000040000fa
:04034000e8020000cf
:020000040000fa
:04034400e8020000cb
:020000040000fa
:04034800e8020000c7
:020000040000fa
:04034c00e8020000c3
:020000040000fa
:04035000e8020000bf
:020000040000fa
:04035400e8020000bb
:020000040000fa
:04035800e8020000b7
:020000040000fa
:04035c00e8020000b3
:020000040000fa
:04036000e8020000af
:020000040000fa
:04036400e8020000ab
:020000040000fa
:04036800e8020000a7
:020000040000fa
:04036c00e8020000a3
:020000040000fa
:04037000e80200009f
:020000040000fa
:04037400e80200009b
:020000040000fa
:04037800e802000097
:020000040000fa
:04037c00e802000093
:020000040000fa
:04038000e80200008f
:020000040000fa
:100400004f8620000e7f22000e01880000000000b1
:10041000000020000000e000020032000001200087
:1004200020028800140007006b0007000000e000b5
:1004300003003a00c08020000100200002003700c5
:100440000000200001002000810f70000100320038
:1004500014000700000020000000e000020032004d
:100460000000020000000000580802000000000028
:100470000040da000000fe004440a90060022000b5
:100480000000e0000300320000002000a00188000e
:100490004440a800000006008a1f78008b1f7800e7
:1004a0000000060091018800800478000000eb0045
:1004b0001a003700e284440032a0b4009905ba0063
:1004c000e284440032a0b4009906ba00e2844400f9
:1004d00032a0b4000006eb00476fde00fd07b2005b
:1004e000636ce10003003a00ebff07000000eb0043
:1004f0000a003700606ce10004003a00005deb0088
:100500008b05e900fdff3e00040037006168e10053
:10051000010032000086eb000b00070019c7ba008b
:100520001905ba000e04e00003003a000a00e000da
:10053000e0ff3a0000000600fe07b2009e018800be
:100540008a047800f5ff3700395dba008b05e900b1
:100550000c003200295dba008b05e900080032006a
:100560000c00e00003003a00e284440032a0b40032
:10057000f5ff370019ddba008b05e900faff3a00f4
:100580008904e800e184440032a0b40000000600c1
:10059000000000000000000000000000000000005b
:1005a000000000000000000000000000000000004b
:1005b000000000000000000000000000000000003b
:1005c000000000000000000000000000000000002b
:0c05d0000040da000000fe000000050002
:020000040000fa
:1005dc006e670000204300006f45000020310000d2
:1005ec0031350000210000005075000074610000de
:1005fc006e670000696e000061000000426100003f
:10060c006e74000075740000616e0000004b0000f9
:0c061c006f6c0000640000000000000093
:020000040000fa
:100628000000fa0030202200103a88004427ef002a
:1006380000032000200888000021ef0080d023005c
:10064800100888008460a90021058000f0ff2800b8
:100658000080600000c0a000200588009460a80009
:1006680000032000800888000021ef00f00420002b
:100678006008880084e0a90031058000f0ff2800a8
:100688000080600000d0a0003005880094e0a80039
:10069800c9a2a900113a8000f00b20000081600077
:1006a8006004200071052000237420008049780030
:1006b800814978008249780061368000f00f2e0069
:1006c80080806000003021000100700060368800e2
:1006d800103a8000000178000260a0006004200049
:1006e8007105200023742000804978008149780032
:1006f800824978009a21ef009c21ef00e00c8000ed
:10070800f001b300e00c8800d10c800000c021008b
:1007180001007000d00c8800c8e2a800c902a80037
:10072800c922a800c942a900c962a9006aa0a800f4
:100738006ac0a8006ae0a800c9e2a800f0df2f009c
:1007480060198800000e2000001988002223ef009d
:10075800900020004019880021198000f00f2e0019
:10076800008060000090a0002019880010c0b3002d
:1007780024e3b70021e3a800c002a8000080fa0023
:10078800000006000200fa00c8a2a900c882a90059
:10079800c862a900c842a900c822a900c802a900c5
:1007a800cc82a900cca2a900cc62a900cc42a900a5
:1007b800cc22a900cc02a90000a62e00010020002e
:1007c8005d020700a142800030c0b30001000100b3
:1007d800000124000100200057020700a142800008
:1007e80030c0b30001000100001920000100200002
:1007f80051020700a142800030c0b300010001008f
:1008080000012400010020004b020700a1428000e3
:1008180020c0b3000100010000c42900010020002d
:1008280045020700b242800081c2b3000040eb00dd
:100838000200010000c42900010020003e02070058
:10084800b242800081c0b3000040eb00020001000a
:1008580000c429000100200037020700b2428000ce
:1008680011c0b3000040eb000200010000c42900e1
:100878000100200030020700b242800061c0b300ce
:100888000040eb000200010000c429000100200024
:1008980029020700b2428000f1c0b3000040eb001b
:1008a8000200010000c42900010020002202070004
:1008b8000000eb00000f78000500370000802000e2
:1008c8001e00400001c2b300014878001e0fe80076
:1008d800f00420009e007800808f5000f7ff34005d
:1008e8000000eb00804288000080fa00000006004b
:1008f8000200fa00004f7800cc82a900cca2a80020
:100908001e80fb00e800600010c0b3000100e0009a
:1009180001003c000040eb000080fb00610060002b
:100928004300dd00611680000130a1000100700065
:10093800601688001e80fb00e400600010c0b30051
:100948000100e00001003c000040eb000080fb00db
:10095800610060004200dd00611680000120a100f6
:1009680001007000601688001e80fb00e200600035
:1009780010c0b3000100e00001003c000040eb00a3
:100988000080fb00610060000000400061168000ec
:100998000110a10001007000601688001e80fb0095
:1009a800e100600010c0b3000100e00001003c005d
:1009b8000040eb000080fb006100600061168000d1
:1009c8000100a1000100700060168800cca2a900f7
:1009d8000080fa00000006000200fa00004f7800cc
:1009e800114798009e40780061c060006140600037
:1009f800614060000080fb00610060004400dd0091
:100a0800611680000140a100010070006016880096
:100a1800cca2a8001e4090000080fb004700de002a
:100a2800004078000080fb00610060004300dd00aa
:100a3800611680000130a100010070006016880076
:100a48001e4090008080fb000004200000806000b1
:100a580000f0a7000000ea000000ea004f00de00f6
:100a6800004078000080fb00610060004200dd006b
:100a7800611680000120a100010070006016880046
:100a88001e4090008080fb00000220000080600073
:100a980000f0a7000000ea000000ea004f00de00b6
:100aa800004078000080fb0061006000000040000a
:100ab800611680000110a100010070006016880016
:100ac8001e4090000080fb007000600000f0a7004e
:100ad8000000ea000000ea004f00de000040780055
:100ae8000080fb0061006000611680000100a10029
:100af8000100700060168800cca2a900001920002f
:100b0800010020008c010700cca2a8001e40900024
:100b18000080fb006800600000f0a7000000ea0009
:100b28000000ea004f00de00004078000080fb0073
:100b3800610060004300dd00611680000130a10003
:100b480001007000601688001e4090000080fb00c5
:100b58006400600000f0a7000000ea000000ea005e
:100b68004f00de00004078000080fb00610060005c
:100b78004200dd00611680000120a1000100700024
:100b8800601688001e4090000080fb006200600034
:100b980000f0a7000000ea000000ea004f00de00b5
:100ba800004078000080fb00610060000000400009
:100bb800611680000110a100010070006016880015
:100bc8001e4090006140600061406000614060002c
:100bd8000080fb0061006000611680000100a10038
:100be8000100700060168800cca2a9000080fa00fd
:100bf800000006000200fa00004f7800cc82a8002e
:100c0800cca2a8001e80fb004700de000040780050
:100c18000080fb00610060004300dd006116800079
:100c28000130a10001007000601688009e00fb00e2
:100c3800000420000080600000f0a7000000ea0027
:100c48000000ea004f00de00004078000080fb0052
:100c5800610060004200dd00611680000120a100f3
:100c680001007000601688009e00fb000002200052
:100c78000080600000f0a7000000ea000000ea0021
:100c88004f00de00004078000080fb00610060003b
:100c980000004000611680000110a10001007000f2
:100ca800601688001e00fb007000600000f0a700be
:100cb8000000ea000000ea004f00de000040780073
:100cc8000080fb0061006000611680000100a10047
:100cd8000100700060168800800c200001002000d0
:100ce80015010700cca2a90000192000010020006e
:100cf80011010700cca2a8001e00fb0068006000dc
:100d080000f0a7000000ea000000ea004f00de0043
:100d1800004078000080fb00610060004300dd00b7
:100d2800611680000130a100010070006016880083
:100d38001e00fb006400600000f0a7000000ea004d
:100d48000000ea004f00de00004078000080fb0051
:100d5800610060004200dd00611680000120a100f2
:100d680001007000601688001e00fb006200600031
:100d780000f0a7000000ea000000ea004f00de00d3
:100d8800004078000080fb00610060000000400027
:100d9800611680000110a100010070006016880033
:100da8001e40780061406000614060006140600062
:100db8000080fb0061006000611680000100a10056
:100dc8000100700060168800800c200001002000df
:100dd800d9000700cca2a900800c20000100200047
:100de800d50007000080fa00000006000600fa009f
:100df8001007980081428000010f78000f0037002b
:100e0800c3428000230798001e01780000052000d7
:100e180080017800110009000301d8008000fd005e
:100e28000001780000802000000041001040780098
:100e3800ae009000010001001e0fe8001e009000a7
:100e48000005b0009e0f5000edff3c009e01900091
:100e5800834288000080fa00000006000600fa00bd
:100e680020479800210798002e4090000004e000d9
:100e78000200320080c2b300010037000040eb00de
:100e8800204798000000eb00000f78000b003700a7
:100e98002e4090000080fb001e0140001e007800dc
:100ea800ae00900000804000904078000080200054
:100eb80000004100014878001e0fe8001e0078007d
:100ec800ae00900000804000104078000004e00070
:100ed800efff3a00080037002e4090000080fb002a
:100ee8009e004000008020000080400001c2b30046
:100ef800014878001e0fe800700220009e0078006c
:100f0800808f5000f4ff34000080fa0000000600d3
:100f18000200fa000040eb00004f78008042800099
:100f2800004f780007003700c14280001e81fb0097
:100f380000802000000041001040780001000100fe
:100f48001e4fe800f0c4b3009e40780080cf5000e8
:100f5800f5ff36000040eb00004f7800070037002f
:100f6800c14280001e81fb0000802000000041007b
:100f780010407800010001001e4fe8009e80fb0031
:100f880080428000808f5000f5ff35000080fa0015
:100f9800000006000400fa00000f7800110798000e
:100fa800e24280009e0078000040eb000200010051
:100fb800e24280009e00900010c0b30002000100d1
:100fc800f0428000000001000080fa0000000600e6
:100fd8000000fa0021c0b3000040eb007efe0700cd
:100fe80000d4200031002000530007000080fa00e0
:100ff800000006000000fa000243800021312800aa
:1010080020312800020001000080fa0000000600dc
:020000040000fa
:10101800000800006400000002000000000000005a
:1010280000000000000000000000000000000000b8
:1010380000000000000000000000000000000000a8
:101048000000000000000000000000000000000098
:101058000000000000000000000000000000000088
:101068000000000000000000000000000000000078
:101078000000000000000000000000000000000068
:10108800000000000000000000c603007c04f0001f
:1010980004fe0500fa063200078c0700ce070000a0
:0810a800000000000000000040
:020000040000fa
:1010b0000000fa009042800000000100d142800050
:1010c000c00020000100010000482800e1012000cc
:1010d0001b000700611680000000220000806000f5
:1010e0000000e0000500320002438000e12e2800ed
:1010f000a02f2800020001000400370002438000f6
:1011000041302800d0302800020001006016800025
:101110004d00de006140600000c0ea0061406000f8
:101120000080fb00610060004d00dd006116800062
:1011300001d0a1000100700060168800e2ff3700b6
:020000040000fa
:10114000f03fb1000180b10006003500ee03090058
:1011500000000000403fb1000180b100fbff3d00f6
:101160001000b000203fb0000200350000800900f0
:08117000000000000000060071
:020000040000fa
:020000040001f9
:0457f400fffc0000b6
:020000040000fa
:020000040001f9
:0457f8009f8100008d
:020000040000fa
:020000040001f9
:0457fc007fbf00006b
:00000001FF
