:020000040000fa
:080000000002040000000000f2
:020000040000fa
:040008009003000061
:020000040000fa
:04000c00900300005d
:020000040000fa
:040010009003000059
:020000040000fa
:040014009003000055
:020000040000fa
:040018009003000051
:020000040000fa
:04001c00900300004d
:020000040000fa
:040020009003000049
:020000040000fa
:040024009003000045
:020000040000fa
:040028009003000041
:020000040000fa
:04002c00900300003d
:020000040000fa
:040030009003000039
:020000040000fa
:040034009003000035
:020000040000fa
:040038009003000031
:020000040000fa
:04003c00900300002d
:020000040000fa
:040040009003000029
:020000040000fa
:040044009003000025
:020000040000fa
:040048009003000021
:020000040000fa
:04004c00900300001d
:020000040000fa
:040050009003000019
:020000040000fa
:040054009003000015
:020000040000fa
:040058009003000011
:020000040000fa
:04005c00900300000d
:020000040000fa
:040060009003000009
:020000040000fa
:040064009003000005
:020000040000fa
:040068009003000001
:020000040000fa
:04006c0090030000fd
:020000040000fa
:0400700090030000f9
:020000040000fa
:0400740090030000f5
:020000040000fa
:0400780090030000f1
:020000040000fa
:04007c0090030000ed
:020000040000fa
:0400800090030000e9
:020000040000fa
:0400840090030000e5
:020000040000fa
:0400880090030000e1
:020000040000fa
:04008c0090030000dd
:020000040000fa
:0400900090030000d9
:020000040000fa
:0400940090030000d5
:020000040000fa
:0400980090030000d1
:020000040000fa
:04009c0090030000cd
:020000040000fa
:0400a00090030000c9
:020000040000fa
:0400a40090030000c5
:020000040000fa
:0400a80090030000c1
:020000040000fa
:0400ac0090030000bd
:020000040000fa
:0400b00090030000b9
:020000040000fa
:0400b40090030000b5
:020000040000fa
:0400b80090030000b1
:020000040000fa
:0400bc0090030000ad
:020000040000fa
:0400c00090030000a9
:020000040000fa
:0400c40090030000a5
:020000040000fa
:0400c80090030000a1
:020000040000fa
:0400cc00900300009d
:020000040000fa
:0400d0009003000099
:020000040000fa
:0400d4009003000095
:020000040000fa
:0400d8009003000091
:020000040000fa
:0400dc00900300008d
:020000040000fa
:0400e0009003000089
:020000040000fa
:0400e4009003000085
:020000040000fa
:0400e8009003000081
:020000040000fa
:0400ec00900300007d
:020000040000fa
:0400f0009003000079
:020000040000fa
:0400f4009003000075
:020000040000fa
:0400f8009003000071
:020000040000fa
:0400fc00900300006d
:020000040000fa
:040100009003000068
:020000040000fa
:040104009003000064
:020000040000fa
:040108009003000060
:020000040000fa
:04010c00900300005c
:020000040000fa
:040110009003000058
:020000040000fa
:040114009003000054
:020000040000fa
:040118009003000050
:020000040000fa
:04011c00900300004c
:020000040000fa
:040120009003000048
:020000040000fa
:040124009003000044
:020000040000fa
:040128009003000040
:020000040000fa
:04012c00900300003c
:020000040000fa
:040130009003000038
:020000040000fa
:040134009003000034
:020000040000fa
:040138009003000030
:020000040000fa
:04013c00900300002c
:020000040000fa
:040140009003000028
:020000040000fa
:040144009003000024
:020000040000fa
:040148009003000020
:020000040000fa
:04014c00900300001c
:020000040000fa
:040150009003000018
:020000040000fa
:040154009003000014
:020000040000fa
:040158009003000010
:020000040000fa
:04015c00900300000c
:020000040000fa
:040160009003000008
:020000040000fa
:040164009003000004
:020000040000fa
:040168009003000000
:020000040000fa
:04016c0090030000fc
:020000040000fa
:0401700090030000f8
:020000040000fa
:0401740090030000f4
:020000040000fa
:0401780090030000f0
:020000040000fa
:04017c0090030000ec
:020000040000fa
:0401800090030000e8
:020000040000fa
:04020800900300005f
:020000040000fa
:04020c00900300005b
:020000040000fa
:040210009003000057
:020000040000fa
:040214009003000053
:020000040000fa
:04021800900300004f
:020000040000fa
:04021c00900300004b
:020000040000fa
:040220009003000047
:020000040000fa
:040224009003000043
:020000040000fa
:04022800900300003f
:020000040000fa
:04022c00900300003b
:020000040000fa
:040230009003000037
:020000040000fa
:040234009003000033
:020000040000fa
:04023800900300002f
:020000040000fa
:04023c00900300002b
:020000040000fa
:040240009003000027
:020000040000fa
:040244009003000023
:020000040000fa
:04024800900300001f
:020000040000fa
:04024c00900300001b
:020000040000fa
:040250009003000017
:020000040000fa
:040254009003000013
:020000040000fa
:04025800900300000f
:020000040000fa
:04025c00900300000b
:020000040000fa
:040260009003000007
:020000040000fa
:040264009003000003
:020000040000fa
:0402680090030000ff
:020000040000fa
:04026c0090030000fb
:020000040000fa
:0402700090030000f7
:020000040000fa
:0402740090030000f3
:020000040000fa
:0402780090030000ef
:020000040000fa
:04027c0090030000eb
:020000040000fa
:0402800090030000e7
:020000040000fa
:0402840090030000e3
:020000040000fa
:0402880090030000df
:020000040000fa
:04028c0090030000db
:020000040000fa
:0402900090030000d7
:020000040000fa
:0402940090030000d3
:020000040000fa
:0402980090030000cf
:020000040000fa
:04029c0090030000cb
:020000040000fa
:0402a00090030000c7
:020000040000fa
:0402a40090030000c3
:020000040000fa
:0402a80090030000bf
:020000040000fa
:0402ac0090030000bb
:020000040000fa
:0402b00090030000b7
:020000040000fa
:0402b40090030000b3
:020000040000fa
:0402b80090030000af
:020000040000fa
:0402bc0090030000ab
:020000040000fa
:0402c00090030000a7
:020000040000fa
:0402c40090030000a3
:020000040000fa
:0402c800900300009f
:020000040000fa
:0402cc00900300009b
:020000040000fa
:0402d0009003000097
:020000040000fa
:0402d4009003000093
:020000040000fa
:0402d800900300008f
:020000040000fa
:0402dc00900300008b
:020000040000fa
:0402e0009003000087
:020000040000fa
:0402e4009003000083
:020000040000fa
:0402e800900300007f
:020000040000fa
:0402ec00900300007b
:020000040000fa
:0402f0009003000077
:020000040000fa
:0402f4009003000073
:020000040000fa
:0402f800900300006f
:020000040000fa
:0402fc00900300006b
:020000040000fa
:040300009003000066
:020000040000fa
:040304009003000062
:020000040000fa
:04030800900300005e
:020000040000fa
:04030c00900300005a
:020000040000fa
:040310009003000056
:020000040000fa
:040314009003000052
:020000040000fa
:04031800900300004e
:020000040000fa
:04031c00900300004a
:020000040000fa
:040320009003000046
:020000040000fa
:040324009003000042
:020000040000fa
:04032800900300003e
:020000040000fa
:04032c00900300003a
:020000040000fa
:040330009003000036
:020000040000fa
:040334009003000032
:020000040000fa
:04033800900300002e
:020000040000fa
:04033c00900300002a
:020000040000fa
:040340009003000026
:020000040000fa
:040344009003000022
:020000040000fa
:04034800900300001e
:020000040000fa
:04034c00900300001a
:020000040000fa
:040350009003000016
:020000040000fa
:040354009003000012
:020000040000fa
:04035800900300000e
:020000040000fa
:04035c00900300000a
:020000040000fa
:040360009003000006
:020000040000fa
:040364009003000002
:020000040000fa
:0403680090030000fe
:020000040000fa
:04036c0090030000fa
:020000040000fa
:0403700090030000f6
:020000040000fa
:0403740090030000f2
:020000040000fa
:0403780090030000ee
:020000040000fa
:04037c0090030000ea
:020000040000fa
:0403800090030000e6
:020000040000fa
:100400006f8e20000e7f22000e0188000000000089
:10041000000020000000e000020032000001200087
:100420002002880014000700bf0007000000e00061
:1004300003003a00a0e7200001002000020037007e
:100440000000200001002000810f70000100320038
:1004500014000700000020000000e000020032004d
:100460000000020000000000580d02000000000023
:100470000040da000000fe004440a900200e2000e9
:100480000000e0000300320000002000a00188000e
:100490004440a800000006008a1f78008b1f7800e7
:1004a0000000060091018800800478000000eb0045
:1004b0001a003700e284440032a0b4009905ba0063
:1004c000e284440032a0b4009906ba00e2844400f9
:1004d00032a0b4000006eb00476fde00fd07b2005b
:1004e000636ce10003003a00ebff07000000eb0043
:1004f0000a003700606ce10004003a00005deb0088
:100500008b05e900fdff3e00040037006168e10053
:10051000010032000086eb000b00070019c7ba008b
:100520001905ba000e04e00003003a000a00e000da
:10053000e0ff3a0000000600fe07b2009e018800be
:100540008a047800f5ff3700395dba008b05e900b1
:100550000c003200295dba008b05e900080032006a
:100560000c00e00003003a00e284440032a0b40032
:10057000f5ff370019ddba008b05e900faff3a00f4
:100580008904e800e184440032a0b40000000600c1
:10059000000000000000000000000000000000005b
:1005a000000000000000000000000000000000004b
:1005b000000000000000000000000000000000003b
:1005c000000000000000000000000000000000002b
:1005d000000000000000000000000000000000001b
:1005e000000000000000000000000000000000000b
:1005f00000000000000000000000000000000000fb
:1006000000000000000000000000000000000000ea
:1006100000000000000000000000000000000000da
:1006200000000000000000000000000000000000ca
:1006300000000000000000000000000000000000ba
:1006400000000000000000000000000000000000aa
:10065000000000000000000000000000000000009a
:10066000000000000000000000000000000000008a
:10067000000000000000000000000000000000007a
:10068000000000000000000000000000000000006a
:10069000000000000000000000000000000000005a
:1006a000000000000000000000000000000000004a
:1006b000000000000000000000000000000000003a
:1006c000000000000000000000000000000000002a
:1006d000000000000000000000000000000000001a
:1006e000000000000000000000000000000000000a
:1006f00000000000000000000000000000000000fa
:1007000000000000000000000000000000000000e9
:1007100000000000000000000000000000000000d9
:0c0720000040da000000fe0000000500b0
:020000040000fa
:10072c0053630000726f00006c6c000020750000b9
:10073c00736900006e670000205000004f540000e9
:10074c00005b0000315d000020530000746100006c
:10075c007274000020470000616d0000650000000d
:10076c00000000005b3300005d20000053650000ba
:10077c0074740000696e00006773000000000000d4
:10078c00000000000050000075730000682000009d
:10079c00425400004e200000746f000020500000f6
:1007ac006c610000790000005b500000697800006b
:1007bc00656c00002046000069670000687400004a
:1007cc0065720000735d00000030000030200000f6
:1007dc00576900006e2000002d2000003030000012
:1007ec00204c00006f730000730000005350000099
:1007fc00492000004d6f0000646500003a200000a5
:10080c00202000002020000020200000005b0000c1
:10081c00315d0000205400006f670000205b000079
:10082c00325d000020420000616300006b0000009c
:10083c00534c00004156000045200000005b0000b6
:10084c00315d00002059000065730000205b000042
:10085c00325d0000204e00006f0000005265000069
:10086c007365000074200000446100007461000096
:10087c003f00000000200000202000004461000028
:10088c007461000020720000657300006574000044
:10089c002100000000470000616d00006520000091
:1008ac005374000061720000740000004b4f000094
:1008bc004c440000005300004c4100005645000021
:1008cc0000200000204b00004f4c000044000000b2
:1008dc00534500004e440000494e00004700000004
:0408ec000000000008
:020000040000fa
:1008f0000000fa0030202200103a88004427ef0060
:1009000000032000200888000021ef0080d0230091
:10091000100888008460a90021058000f0ff2800ed
:100920000080600000c0a000200588009460a8003e
:1009300000032000800888000021ef00f004200060
:100940006008880084e0a90031058000f0ff2800dd
:100950000080600000d0a0003005880094e0a8006e
:10096000c9a2a900113a8000f00b200000816000ac
:100970006004200071052000237420008049780065
:10098000814978008249780061368000f00f2e009e
:100990008080600000302100010070006036880017
:1009a000103a8000000178000260a000600420007e
:1009b0007105200023742000804978008149780067
:1009c000824978009a21ef009c21ef00e00c800022
:1009d000f001b300e00c8800d10c800000c02100c1
:1009e00001007000d00c8800c9e2a8000080eb0074
:1009f000601988000080fa00000006000200fa007a
:100a0000c8a2a900c882a900c862a900c842a9005a
:100a1000c822a900c802a900cc82a900cca2a900c2
:100a2000cc62a900cc42a900cc22a900cc02a9002a
:100a300000a62e0001002000d306070041438000dd
:100a400030c0b300010001000001240001002000bb
:100a5000cd0607004143800030c0b3000100010013
:100a60000019200001002000c70607004143800054
:100a700030c0b3000100010000012400010020008b
:100a8000c10607004143800020c0b30001000100ff
:100a900000c4290001002000bb060700524380006b
:100aa00081c2b3000040eb000200010000c4290035
:100ab00001002000b40607005243800081c0b3004b
:100ac0000040eb000200010000c4290001002000ea
:100ad000ad0607005243800011c0b3000040eb0098
:100ae0000200010000c4290001002000a606070042
:100af0005243800061c0b3000040eb0002000100df
:100b000000c42900010020009f0607005243800016
:100b1000f1c0b3000040eb000200010000c4290056
:100b200001002000980607000000eb00000f78008d
:100b300005003700408120001e00400001c2b300c4
:100b4000014878001e0fe800f00420009e007800a5
:100b5000808f5000f7ff34000000eb002043880036
:100b60000080fa00000006000200fa00004f780042
:100b7000cc82a900cca2a8001e80fb00e800600087
:100b800010c0b3000100e00001003c000040eb0099
:100b90000080fb00610060004300dd006116800002
:100ba0000130a10001007000601688001e80fb006b
:100bb000e400600010c0b3000100e00001003c0050
:100bc0000040eb000080fb00610060004200dd009f
:100bd000611680000120a1000100700060168800ed
:100be0001e80fb00e200600010c0b3000100e000c6
:100bf00001003c000040eb000080fb006100600051
:100c000000004000611680000110a100010070008a
:100c1000601688001e80fb00e100600010c0b30079
:100c20000100e00001003c000040eb000080fb0000
:100c300061006000611680000100a10001007000e9
:100c400060168800cca2a9000080fa00000006000f
:100c50000200fa00004f7800114798009e4078008b
:100c600061c0600061406000614060000080fb0086
:100c7000610060004400dd00611680000140a100b9
:100c80000100700060168800cca2a8001e409000f1
:100c90000080fb004700de00004078000080fb0081
:100ca000610060004300dd00611680000130a1009a
:100cb00001007000601688001e4090008080fb00dc
:100cc000000420000080600000f0a7000000ea009f
:100cd0000000ea004f00de00004078000080fb00ca
:100ce000610060004200dd00611680000120a1006b
:100cf00001007000601688001e4090008080fb009c
:100d0000000220000080600000f0a7000000ea0060
:100d10000000ea004f00de00004078000080fb0089
:100d20006100600000004000611680000110a10019
:100d300001007000601688001e4090000080fb00db
:100d40007000600000f0a7000000ea000000ea0068
:100d50004f00de00004078000080fb006100600072
:100d6000611680000100a10001007000601688007b
:100d7000cca2a900001920000100200002060700f3
:100d8000cca2a8001e4090000080fb00680060001c
:100d900000f0a7000000ea000000ea004f00de00bb
:100da000004078000080fb00610060004300dd002f
:100db000611680000130a1000100700060168800fb
:100dc0001e4090000080fb006400600000f0a7005f
:100dd0000000ea000000ea004f00de00004078005a
:100de0000080fb00610060004200dd0061168000b1
:100df0000120a10001007000601688001e409000d4
:100e00000080fb006200600000f0a7000000ea0024
:100e10000000ea004f00de00004078000080fb0088
:100e20006100600000004000611680000110a10018
:100e300001007000601688001e4090006140600054
:100e400061406000614060000080fb006100600064
:100e5000611680000100a10001007000601688008a
:100e6000cca2a9000080fa00000006000200fa00ef
:100e7000004f7800cc82a800cca2a8001e80fb0006
:100e80004700de00004078000080fb006100600049
:100e90004300dd00611680000130a10001007000f8
:100ea000601688009e00fb000004200000806000a7
:100eb00000f0a7000000ea000000ea004f00de009a
:100ec000004078000080fb00610060004200dd000f
:100ed000611680000120a1000100700060168800ea
:100ee0009e00fb00000220000080600000f0a700d0
:100ef0000000ea000000ea004f00de000040780039
:100f00000080fb006100600000004000611680006e
:100f10000110a10001007000601688001e00fb0097
:100f20007000600000f0a7000000ea000000ea0086
:100f30004f00de00004078000080fb006100600090
:100f4000611680000100a100010070006016880099
:100f5000800c2000010020008b050700cca2a90016
:100f6000001920000100200087050700cca2a8007e
:100f70001e00fb006800600000f0a7000000ea000f
:100f80000000ea004f00de00004078000080fb0017
:100f9000610060004300dd00611680000130a100a7
:100fa00001007000601688001e00fb0064006000f5
:100fb00000f0a7000000ea000000ea004f00de0099
:100fc000004078000080fb00610060004200dd000e
:100fd000611680000120a1000100700060168800e9
:100fe0001e00fb006200600000f0a7000000ea00a5
:100ff0000000ea004f00de00004078000080fb00a7
:101000006100600000004000611680000110a10036
:1010100001007000601688001e407800614060008a
:1010200061406000614060000080fb006100600082
:10103000611680000100a1000100700060168800a8
:10104000800c2000010020004f050700cca2a90061
:10105000800c2000010020004b0507000080fa00f2
:10106000000006000600fa001007980021438000e7
:10107000010f78000f0037006343800023079800ba
:101080001e01780000052000800178001100090091
:101090000301d8008000fd0000017800408120009d
:1010a0000000410010407800ae00900001000100f7
:1010b0001e0fe8001e0090000005b0009e0f5000bb
:1010c000edff3c009e019000234388000080fa0061
:1010d000000006000600fa0020479800210798004b
:1010e0002e4090000004e0000200320080c2b300f5
:1010f000010037000040eb00204798000000eb00a3
:10110000000f78000b0037002e4090000080fb009d
:101110001e0140001e007800ae00900000804000dc
:101120009040780040812000000041000148780094
:101130001e0fe8001e007800ae0090000080400006
:10114000104078000004e000efff3a00080037008c
:101150002e4090000080fb009e0040004081200057
:101160000080400001c2b300014878001e0fe80073
:10117000700220009e007800808f5000f4ff340041
:101180000080fa00000006000200fa000040eb00b8
:10119000004f780020438000004f780007003700a0
:1011a000614380001e81fb0040812000000041005f
:1011b00010407800010001001e4fe800f0c4b300a9
:1011c0009e40780080cf5000f5ff36000040eb00d5
:1011d000004f780007003700614380001e81fb004c
:1011e0004081200000004100104078000100010013
:1011f0001e4fe8009e80fb0020438000808f50003f
:10120000f5ff35000080fa00000006000400fa0037
:10121000000f780011079800824380009e0078003c
:101220000040eb0002000100824380009e0090001d
:1012300010c0b300020001009043800000000100d4
:101240000080fa00000006000000fa0021c0b30090
:101250000040eb007efe070000d42000310020009b
:10126000c90407000080fa00000006000000fa0030
:10127000a243800061472800604728000200010067
:101280000080fa00000006000200fa00000f78005b
:101290001e007800e14f2000112898001e00780001
:1012a000415b2000212898001e0078008162200008
:1012b000312898001e0078006173200041289800b2
:1012c0001e00780021832000512898001e0078001d
:1012d000a1862000612898001e007800418c200023
:1012e000712898001e00780061902000013098005d
:1012f0001e00780061932000113098000080fa00f1
:10130000000006000000fa00f0df2f0060198800de
:101310003043800000000100808020001000780031
:1013200000000100004780000000010060448000d0
:1013300000000100d04680000000010080408000d5
:101340000000010090458000000001007143800012
:1013500010012000010001000080fa0000000600da
:101360000000fa000080fa00000006005800fa00b1
:10137000e2004700290009008018eb008058eb00cc
:1013800060392800e200470010000900b0587800da
:101390001001b100703a2800f30047000e00090068
:1013a000b0587800f000b1008e0078002102b00043
:1013b000010009008058eb00400220000e004000b0
:1013c000b2252300d30522000288be00640040003d
:1013d00002252700f36626000288be006400400054
:1013e00092c62600530620000288be00640040001a
:1013f000010009000018eb000058eb005000b1009c
:10140000803b280051032000810047000c000900a8
:10141000b0587800d000b1008e0078002104b000f0
:10142000030009008058eb00600420000e0040001b
:10143000b2452300d30522000288be0064004000ac
:1014400022552600335726000288be006400400063
:1014500042072000030020000288be006400400014
:10146000010009000018eb000058eb005000b1002b
:1014700003003700000000000100370000000000fa
:101480009140800020c0b30001000100000f7800ef
:10149000a34380000e81e8001e00e8007100b9003f
:1014a00000007800000141000e82e8001e00780074
:1014b0007100b9000000780000004200820078004e
:1014c00003000100e046800000000100f0468000bb
:1014d0000000e000e7ff3400f0468000e40f500019
:1014e000e6ff3c00f0468000e20f50000d003200a5
:1014f000e20f500003003c00e10f500006003200f4
:1015000011003700e30f500009003200e40f5000d3
:101510000a0032000c0037000000eb004046880053
:101520000900370010002000404688000600370000
:1015300020002000404688000300370030002000d3
:1015400040468800000000000080fa00000006000d
:101550000000fa00a2438000913c2800a03d280032
:1015600002000100000000001047800000000100a0
:101570000000e000fcff3a00808020001000900096
:10158000000001000080fa00000006000000fa00e0
:1015900082438000818920000040eb0002000100ae
:1015a00082438000b13e280010c0b3000200010059
:1015b00041458000d0cc2c000008b8004308de0074
:1015c000004078000043b00080407800c0832000d5
:1015d0000148780042458000d0cc2c000010b800b3
:1015e0004308de006a00b9000000780000005100e6
:1015f000004078000043b00080407800d083200095
:101600000148780041458000d0cc2c000008b8008b
:101610004308de00004078000043b00080407800be
:10162000508420000148780042458000d0cc2c0036
:101630000010b8004308de006a00b900000078001e
:1016400000005100004078000043b0008040780066
:101650006084200001487800904380000000010071
:1016600000502300c1002000c70307000000000055
:1016700010478000000001000000e000040032007c
:10168000e0468000000001000000e000f8ff3500a7
:101690000080fa00000006000e00fa000e0078003c
:1016a000d2142400334525000288be0064004000a7
:1016b00051242500010878000080e8008040eb00fc
:1016c000014878000000e800e0412800e7004700fa
:1016d00006000900b05878007000b1008243800015
:1016e000c13f28000040eb0002000100824380005f
:1016f000d140280010c0b3000200010001003700f3
:1017000000000000604580000000e00004003a0096
:10171000e18120000e007800750307000300370008
:1017200067004700e18120007103070090438000bb
:101730000000010000502300c100200092030700b8
:1017400000000000e0468000000001000000e00012
:1017500004003d00e046800000000100e20f500060
:10176000f8ff3c00f0468000e10f500003003a0013
:10177000a045800000000100e2ff3700f046800035
:10178000e20f5000deff3a00000000000080fa0087
:10179000000006000000fa00a24380005142280029
:1017a0004043280002000100010037000000000053
:1017b000e046800000000100f0468000e10f50008c
:1017c0000a003a00b045800000000100a2438000fa
:1017d000014428001044280002000100009020006d
:1017e000d10320006803070004003700f0468000a2
:1017f000e20f5000edff3a00000000000080fa0008
:10180000000006000000fa000080fa000000060058
:101810000000fa00c0438000000001000080fa00d0
:10182000000006000400fa00100798000040eb00da
:10183000004f7800d0438000000001000200370014
:10184000e0438000000001002144800070448000db
:1018500000407800010001000000e000f8ff3a00bd
:10186000214480001e0090004800de000040780007
:1018700001000100214480001e009000004078001b
:1018800001000100e04380000000010021448000cd
:1018900070448000004078000040e8000100010032
:1018a0003044800000000100004f780010448000a8
:1018b00000000100f0438000000001001e80fb00da
:1018c0000080fa00000006000400fa00000f780013
:1018d00011079800d043800000000100020037008b
:1018e000e04380000000010021448000704480003b
:1018f00000407800010001000000e000f8ff3a001d
:10190000214480001e0078004800de00004078007e
:1019100001000100214480001e0078000040780092
:1019200001000100214480001e009000004078006a
:1019300001000100f0438000000001000080fa0077
:10194000000006000600fa00100798002107980022
:101950000040eb00004f78000b003700524480003d
:101960001e80fb00ae009000008040001040780018
:101970008000fb009e81fb001e0090000080410063
:10198000020001001e4fe8001e80fb00ae00900028
:1019900000804000104078000004e000efff3a00b3
:1019a0000080fa00000006000800fa001007980006
:1019b00021079800320798000040eb00004f7800a4
:1019c0000b00370052448000ae0090001e80fb00e8
:1019d00000804000104078008080fb009e81fb006a
:1019e0001e00900000804100020001001e4fe80030
:1019f0009e80fb003e009000808f5000f1ff390078
:101a00000080fa00000006000600fa00000f7800cf
:101a10001107980022079800b34480002e0190001f
:101a20009e0090001e007800030001009e009000c0
:101a30002e009000008040008040eb0001487800bc
:101a40000080fa00000006000800fa00881f7800f5
:101a50001007980021079800320798000040eb001b
:101a6000004f78000b003700ae0090001e80fb0096
:101a700000844000414480001e81fb001e00900055
:101a8000000041000100010000407800004c780097
:101a90001e4fe8009e80fb003e009000808f5000ab
:101aa000f1ff39004f0478000080fa0000000600c2
:101ab0000000fa005d000700c04580000000010042
:101ac000f045800000000100e045800000000100ba
:101ad00040468000e10f500011003200e10f50003d
:101ae00005003900e20f500010003200e30f5000f3
:101af0001100320013003700a24380000145280086
:101b0000104528000200010000000000104780007e
:101b1000000001000000e000fcff3a00090037006f
:101b200010468000000001000600370020468000bb
:101b30000000010003003700304680000000010073
:101b400000000000e0ff37000000fa003043800092
:101b5000000001006044800000000100414480005a
:101b6000f005200001000100524480001100200017
:101b7000f005200002000100a2438000c1452800ba
:101b8000c045280002000100ffff37000200fa00f4
:101b9000f00f20006019880080802000100078007d
:101ba000000001000000eb0060458800008020007c
:101bb000100078000000010000802000100090005c
:101bc00000000100601680004e00de0061406000f1
:101bd00000c0ea00614060000080fb00610060001e
:101be0004e00dd006116800001e0a10001007000e0
:101bf0006016880000802000300090000000010086
:101c0000000f7800a10020001e8f500000802000ef
:101c1000a00090001e00780001000100009020004c
:101c2000d103200058020700e6ff37000400fa0045
:101c30000000eb00000f7800f00f20006019880012
:101c40003043800000000100a243800011462800bc
:101c5000704628000200010060448000000001007e
:101c600090458000000001001000200060458800c1
:101c7000008020001000780000000100008020009b
:101c80001000900000000100a2438000e1462800ff
:101c9000704628000200010000802000a000900093
:101ca0001e0078000100010000802000300090003c
:101cb00000000100100798009e009000a000200086
:101cc00000017800110009008200d8008000fd00aa
:101cd000004078000043b000804078004081200040
:101ce0000148780090438000000001001e0fe800ca
:041cf000e9ff3700d1
:020000040000fa
:101cf400140800006400000002000000000000005e
:101d040000000000000000000000000000000000cf
:101d140000000000000000000000000000000000bf
:101d240000000000000000000000000000000000af
:101d3400000000000000000000000000000000009f
:101d4400000000000000000000000000000000008f
:101d5400000000000000000000000000000000007f
:101d6400000000000000000000fe0400b40528008c
:101d74000636070032086a0008c408000609000095
:101d840000000000da080000060000000200000065
:101d94003410c60010ffff00780800002000000087
:101da40002000000580f6e000f820f009e0fba0051
:101db4000fd80f00f60f160010120c00640c080068
:101dc4000ca00000a20cd4000c040d00240d000093
:101dd400ca0800001000000002000000580f6e0046
:101de4000f820f009e0fba000fd80f00f60f1600d7
:101df40010000000000800000800000002000000bd
:101e04007211d20011da1100fe11000098080000ce
:101e1400200000000200000000000000000000009c
:101e240000000000000000000000000000000000ae
:101e340000000100000f0000f810d4001008110089
:101e44001a110000b808000012000000020000008f
:101e54008209b00009b60900a80a02000cc60a00eb
:101e64004c0bca000b010000e00800000600000053
:101e7400020000004812520012010000080800008d
:101e84000800000002000000a612ae0012b6120004
:101e9400be12000010080000040000000200000050
:0c1ea40008122a001200000000000000dc
:020000040000fa
:101eb0000000fa00500220002010880007a2a800ad
:101ec00006a2a9000742a9000742a9009600a8009f
:101ed00007e2a8000080fa00000006000000fa00f7
:101ee0000602a800000000003004800062006000cc
:101ef0000000e000fcff32008620a9000080fa000c
:101f0000000006000000fa003110800000fe2f00e3
:101f100000806000301088000622a8000000000049
:101f200030048000620060000000e000fcff32002e
:101f30008620a9000080fa00000006000000fa00d8
:101f40003110800000fe2f000080600030108800fb
:101f50000642a8000000000030048000620060001b
:101f60000000e000fcff32008620a9000080fa009b
:101f7000000006000000fa003110800000fe2f0073
:101f8000008060003010880006a2a9000682a80028
:101f90000000000030048000620060000000e000eb
:101fa000fcff32008620a9000080fa000000060035
:101fb0000000fa003110800000fe2f000080600059
:101fc0003010880006a2a8000682a80000000000c9
:101fd00030048000620060000000e000fcff32007e
:101fe0008620a9000080fa00000006000200fa0026
:101ff000004f78001e80fb001010880000000000d9
:1020000030048000620060000000e000fcff32004d
:102010008620a900401080004f00de0000407800bc
:102020000080fb000080fa00000006000000fa00bb
:102030003110800000fe2f0000806000301088000a
:102040000662a8000000000030048000620060000a
:102050000000e000fcff32008620a9000010800094
:102060000080fa00000006000000fa006bc0a80023
:102070006860a8006840a800c042a800c022a8006c
:10208000c002a800c082a900c062a9000080fa00b6
:10209000000006000000fa00c482a800c462a80084
:1020a0000080fa00000006000000fa00c482a900c7
:1020b000c462a90000d420003100200032010700d2
:1020c00010168000640060000000e0000c003a0080
:1020d000c482a80000d42000310020002a0107009b
:1020e00010168000640060000000e0000200320072
:1020f000100020002300370040002000210037009e
:1021000010168000620060000000e0000c003a0041
:10211000c482a80000d42000310020001a0107006a
:1021200010168000620060000000e0000200320033
:10213000200020001300370050002000110037005d
:1021400010168000610060000000e0000c003a0002
:10215000c482a80000d42000310020000a0107003a
:1021600010168000610060000000e00002003200f4
:10217000300020000300370060002000010037001d
:102180000080eb000080fa00000006000000fa006a
:10219000c5ff0700f0468800beff0700f04680003c
:1021a0000080fa00000006000000fa00b34480003e
:1021b0007045800062012000818920000300010039
:1021c000708a2000104078000004e00004003a000b
:1021d00080892000104078000004e00002003a00ee
:1021e000b0458000000001000080fa0000000600f9
:1021f0000000fa00934480007045800062012000d6
:1022000081892000030001000080fa000000060020
:102210000000fa006045800000f0a7000000ea001e
:102220000000e9004f00de00604588000080fa00f1
:10223000000006001200fa0000c5260011962700d3
:102240001007980021079800502627000100200061
:102250003007980041079800ea0047000300090092
:102260008018eb000000eb00000f7800070037003b
:102270000e80e8001e004000904078008089200019
:102280001e004000014878001e0fe8000e80e800a4
:102290001e004000104078000004e000f4ff3a0007
:1022a00005003700808920001e0040008040eb00c0
:1022b000014878001e0fe8001e007800ef0f500064
:1022c000f8ff34000000eb00404588000000eb0000
:1022d0005045880010002000604588000080fa000a
:1022e000000006000000fa004022ef004222ef004a
:1022f0006422ef004302a8004342a800113a800084
:10230000f00b2000008160006004200071052000b7
:102310002374200080497800814978008249780040
:1023200041358000f00f2e0080806000007020009a
:1023300001007000403588004135800000fe2f000c
:1023400000806000a000b300403588005136800056
:10235000f00f2e00808060000070200001007000ef
:1023600050368800103a8000000178000260a0001a
:10237000600420007105200023742000804978004b
:102380008149780082497800604580000000e000c3
:1023900001003a0042a2a800020007000080fa00f3
:1023a000000006000000fa0041e2a8000080fa00e8
:1023b000000006000200fa00000f78001e007800fe
:1023c00040128800000000000012800062006000df
:1023d0000000e000fcff3a00000000000012800056
:1023e000610060000000e000fcff32008540a900b1
:1023f000401280000080fa00000006000000fa0091
:102400000000eb00ebff07000080fa000000060070
:102410000000fa00c9e2a800000e200000198800a0
:102420002223ef009000200040198800211980002d
:10243000f00f2e00008060000090a000201988009e
:1024400010c0b30024e3b70021e3a8000080fa0025
:10245000000006000200fa00004f78002023a800c8
:102460000000000000198000610060000000e00032
:10247000fcff32002003a900011880001e80fb0031
:102480006a0010000008de000080fa00000006006c
:102490000000fa0069a0a800c9a2a8000080fa0004
:1024a000000006000000fa0021478000501680005e
:1024b0004d00de00614060000080fb00808f500016
:1024c0000800320000d42000310020002e00070058
:1024d000501680004d00de00614060000080fb006f
:1024e00020478800204780000080fa000000060096
:1024f0000600fa0010079800210798000000eb0082
:10250000000f7800090037001e007800ae00900030
:10251000008040009e0078001e0190008100410074
:1025200091407800014878001e0fe8001e007800f6
:102530009e00900000804000104078000004e00001
:10254000f1ff3a000080fa00000006000000fa00e7
:10255000c9c2a9000080fa00000006000000fa00cd
:10256000cdc2a8000080fa00000006000000fa00ba
:10257000cdc2a9000080fa00000006000000fa00a9
:082580000080fa0000000600d3
:020000040000fa
:10258800f03fb1000180b10006003500ee030900fc
:1025980000000000403fb1000180b100fbff3d009a
:1025a8001000b000203fb000020035000080090094
:0825b800000000000000060015
:020000040000fa
:020000040001f9
:0457f400fffc0000b6
:020000040000fa
:020000040001f9
:0457f8009f8100008d
:020000040000fa
:020000040001f9
:0457fc007fbf00006b
:00000001FF
