:020000040000fa
:080000000002040000000000f2
:020000040000fa
:0400080028030000c9
:020000040000fa
:04000c0028030000c5
:020000040000fa
:0400100028030000c1
:020000040000fa
:0400140028030000bd
:020000040000fa
:0400180028030000b9
:020000040000fa
:04001c0028030000b5
:020000040000fa
:0400200028030000b1
:020000040000fa
:0400240028030000ad
:020000040000fa
:0400280028030000a9
:020000040000fa
:04002c0028030000a5
:020000040000fa
:0400300028030000a1
:020000040000fa
:04003400280300009d
:020000040000fa
:040038002803000099
:020000040000fa
:04003c002803000095
:020000040000fa
:040040002803000091
:020000040000fa
:04004400280300008d
:020000040000fa
:040048002803000089
:020000040000fa
:04004c002803000085
:020000040000fa
:040050002803000081
:020000040000fa
:04005400280300007d
:020000040000fa
:040058002803000079
:020000040000fa
:04005c002803000075
:020000040000fa
:040060002803000071
:020000040000fa
:04006400280300006d
:020000040000fa
:040068002803000069
:020000040000fa
:04006c002803000065
:020000040000fa
:040070002803000061
:020000040000fa
:04007400280300005d
:020000040000fa
:040078002803000059
:020000040000fa
:04007c002803000055
:020000040000fa
:040080002803000051
:020000040000fa
:04008400280300004d
:020000040000fa
:040088002803000049
:020000040000fa
:04008c002803000045
:020000040000fa
:040090002803000041
:020000040000fa
:04009400280300003d
:020000040000fa
:040098002803000039
:020000040000fa
:04009c002803000035
:020000040000fa
:0400a0002803000031
:020000040000fa
:0400a400280300002d
:020000040000fa
:0400a8002803000029
:020000040000fa
:0400ac002803000025
:020000040000fa
:0400b0002803000021
:020000040000fa
:0400b400280300001d
:020000040000fa
:0400b8002803000019
:020000040000fa
:0400bc002803000015
:020000040000fa
:0400c0002803000011
:020000040000fa
:0400c400280300000d
:020000040000fa
:0400c8002803000009
:020000040000fa
:0400cc002803000005
:020000040000fa
:0400d0002803000001
:020000040000fa
:0400d40028030000fd
:020000040000fa
:0400d80028030000f9
:020000040000fa
:0400dc0028030000f5
:020000040000fa
:0400e00028030000f1
:020000040000fa
:0400e40028030000ed
:020000040000fa
:0400e80028030000e9
:020000040000fa
:0400ec0028030000e5
:020000040000fa
:0400f00028030000e1
:020000040000fa
:0400f40028030000dd
:020000040000fa
:0400f80028030000d9
:020000040000fa
:0400fc0028030000d5
:020000040000fa
:0401000028030000d0
:020000040000fa
:0401040028030000cc
:020000040000fa
:0401080028030000c8
:020000040000fa
:04010c0028030000c4
:020000040000fa
:0401100028030000c0
:020000040000fa
:0401140028030000bc
:020000040000fa
:0401180028030000b8
:020000040000fa
:04011c0028030000b4
:020000040000fa
:0401200028030000b0
:020000040000fa
:0401240028030000ac
:020000040000fa
:0401280028030000a8
:020000040000fa
:04012c0028030000a4
:020000040000fa
:0401300028030000a0
:020000040000fa
:04013400280300009c
:020000040000fa
:040138002803000098
:020000040000fa
:04013c002803000094
:020000040000fa
:040140002803000090
:020000040000fa
:04014400280300008c
:020000040000fa
:040148002803000088
:020000040000fa
:04014c002803000084
:020000040000fa
:040150002803000080
:020000040000fa
:04015400280300007c
:020000040000fa
:040158002803000078
:020000040000fa
:04015c002803000074
:020000040000fa
:040160002803000070
:020000040000fa
:04016400280300006c
:020000040000fa
:040168002803000068
:020000040000fa
:04016c002803000064
:020000040000fa
:040170002803000060
:020000040000fa
:04017400280300005c
:020000040000fa
:040178002803000058
:020000040000fa
:04017c002803000054
:020000040000fa
:040180002803000050
:020000040000fa
:0402080028030000c7
:020000040000fa
:04020c0028030000c3
:020000040000fa
:0402100028030000bf
:020000040000fa
:0402140028030000bb
:020000040000fa
:0402180028030000b7
:020000040000fa
:04021c0028030000b3
:020000040000fa
:0402200028030000af
:020000040000fa
:0402240028030000ab
:020000040000fa
:0402280028030000a7
:020000040000fa
:04022c0028030000a3
:020000040000fa
:04023000280300009f
:020000040000fa
:04023400280300009b
:020000040000fa
:040238002803000097
:020000040000fa
:04023c002803000093
:020000040000fa
:04024000280300008f
:020000040000fa
:04024400280300008b
:020000040000fa
:040248002803000087
:020000040000fa
:04024c002803000083
:020000040000fa
:04025000280300007f
:020000040000fa
:04025400280300007b
:020000040000fa
:040258002803000077
:020000040000fa
:04025c002803000073
:020000040000fa
:04026000280300006f
:020000040000fa
:04026400280300006b
:020000040000fa
:040268002803000067
:020000040000fa
:04026c002803000063
:020000040000fa
:04027000280300005f
:020000040000fa
:04027400280300005b
:020000040000fa
:040278002803000057
:020000040000fa
:04027c002803000053
:020000040000fa
:04028000280300004f
:020000040000fa
:04028400280300004b
:020000040000fa
:040288002803000047
:020000040000fa
:04028c002803000043
:020000040000fa
:04029000280300003f
:020000040000fa
:04029400280300003b
:020000040000fa
:040298002803000037
:020000040000fa
:04029c002803000033
:020000040000fa
:0402a000280300002f
:020000040000fa
:0402a400280300002b
:020000040000fa
:0402a8002803000027
:020000040000fa
:0402ac002803000023
:020000040000fa
:0402b000280300001f
:020000040000fa
:0402b400280300001b
:020000040000fa
:0402b8002803000017
:020000040000fa
:0402bc002803000013
:020000040000fa
:0402c000280300000f
:020000040000fa
:0402c400280300000b
:020000040000fa
:0402c8002803000007
:020000040000fa
:0402cc002803000003
:020000040000fa
:0402d00028030000ff
:020000040000fa
:0402d40028030000fb
:020000040000fa
:0402d80028030000f7
:020000040000fa
:0402dc0028030000f3
:020000040000fa
:0402e00028030000ef
:020000040000fa
:0402e40028030000eb
:020000040000fa
:0402e80028030000e7
:020000040000fa
:0402ec0028030000e3
:020000040000fa
:0402f00028030000df
:020000040000fa
:0402f40028030000db
:020000040000fa
:0402f80028030000d7
:020000040000fa
:0402fc0028030000d3
:020000040000fa
:0403000028030000ce
:020000040000fa
:0403040028030000ca
:020000040000fa
:0403080028030000c6
:020000040000fa
:04030c0028030000c2
:020000040000fa
:0403100028030000be
:020000040000fa
:0403140028030000ba
:020000040000fa
:0403180028030000b6
:020000040000fa
:04031c0028030000b2
:020000040000fa
:0403200028030000ae
:020000040000fa
:0403240028030000aa
:020000040000fa
:0403280028030000a6
:020000040000fa
:04032c0028030000a2
:020000040000fa
:04033000280300009e
:020000040000fa
:04033400280300009a
:020000040000fa
:040338002803000096
:020000040000fa
:04033c002803000092
:020000040000fa
:04034000280300008e
:020000040000fa
:04034400280300008a
:020000040000fa
:040348002803000086
:020000040000fa
:04034c002803000082
:020000040000fa
:04035000280300007e
:020000040000fa
:04035400280300007a
:020000040000fa
:040358002803000076
:020000040000fa
:04035c002803000072
:020000040000fa
:04036000280300006e
:020000040000fa
:04036400280300006a
:020000040000fa
:040368002803000066
:020000040000fa
:04036c002803000062
:020000040000fa
:04037000280300005e
:020000040000fa
:04037400280300005a
:020000040000fa
:040378002803000056
:020000040000fa
:04037c002803000052
:020000040000fa
:04038000280300004e
:020000040000fa
:100400004f8920000e7f22000e01880000000000ae
:10041000000020000000e000020032000001200087
:1004200020028800140007008b0007000000e00095
:1004300003003a0080a920000100200002003700dc
:100440000000200001002000810f70000100320038
:1004500014000700000020000000e000020032004d
:100460000000020000000000120b0200000000006b
:100470000040da000000fe004440a90020012000f6
:100480000000e0000300320000002000a00188000e
:100490004440a800000006008a1f78008b1f7800e7
:1004a0000000060091018800800478000000eb0045
:1004b0001a003700e284440032a0b4009905ba0063
:1004c000e284440032a0b4009906ba00e2844400f9
:1004d00032a0b4000006eb00476fde00fd07b2005b
:1004e000636ce10003003a00ebff07000000eb0043
:1004f0000a003700606ce10004003a00005deb0088
:100500008b05e900fdff3e00040037006168e10053
:10051000010032000086eb000b00070019c7ba008b
:100520001905ba000e04e00003003a000a00e000da
:10053000e0ff3a0000000600fe07b2009e018800be
:100540008a047800f5ff3700395dba008b05e900b1
:100550000c003200295dba008b05e900080032006a
:100560000c00e00003003a00e284440032a0b40032
:10057000f5ff370019ddba008b05e900faff3a00f4
:100580008904e800e184440032a0b40000000600c1
:10059000000000000000000000000000000000005b
:1005a000000000000000000000000000000000004b
:1005b000000000000000000000000000000000003b
:1005c000000000000000000000000000000000002b
:1005d000000000000000000000000000000000001b
:1005e000000000000000000000000000000000000b
:1005f00000000000000000000000000000000000fb
:1006000000000000000000000000000000000000ea
:1006100000000000000000000000000000000000da
:1006200000000000000000000000000000000000ca
:1006300000000000000000000000000000000000ba
:1006400000000000000000000000000000000000aa
:0c0650000040da000000fe000000050081
:020000040000fa
:10065c004b4f00004c4400000032000030310000d1
:10066c00352d00003031000034380000310000001e
:04067c00000000007a
:020000040000fa
:100680000000fa0030202200103a88004427ef00d2
:1006900000032000200888000021ef0080d0230004
:1006a000100888008460a90021058000f0ff280060
:1006b0000080600000c0a000200588009460a800b1
:1006c00000032000800888000021ef00f0042000d3
:1006d0006008880084e0a90031058000f0ff280050
:1006e0000080600000d0a0003005880094e0a800e1
:1006f000c9a2a900113a8000f00b2000008160001f
:1007000060042000710520002374200080497800d7
:10071000814978008249780061368000f00f2e0010
:100720008080600000302100010070006036880089
:10073000103a8000000178000260a00060042000f0
:1007400071052000237420008049780081497800d9
:10075000824978009a21ef009c21ef00e00c800094
:10076000f001b300e00c8800d10c800000c0210033
:1007700001007000d00c8800c8e2a800c902a800df
:10078000c922a800c942a900c962a9006aa0a8009c
:100790006ac0a8006ae0a800c9e2a800f0df2f0044
:1007a00060198800000e2000001988002223ef0045
:1007b000900020004019880021198000f00f2e00c1
:1007c000008060000090a0002019880010c0b300d5
:1007d00024e3b70021e3a800c002a8000080fa00cb
:1007e000000006000200fa00c8a2a900c882a90001
:1007f000c862a900c842a900c822a900c802a9006d
:10080000cc82a900cca2a900cc62a900cc42a9004c
:10081000cc22a900cc02a90000a62e0001002000d5
:10082000a7030700a142800030c0b300010001000f
:100830000001240001002000a1030700a142800064
:1008400030c0b300010001000019200001002000a9
:100850009b030700a142800030c0b30001000100eb
:10086000000124000100200095030700a142800040
:1008700020c0b3000100010000c4290001002000d5
:100880008f030700b242800081c2b3000040eb003a
:100890000200010000c429000100200088030700b5
:1008a000b242800081c0b3000040eb0002000100b2
:1008b00000c429000100200081030700b24280002b
:1008c00011c0b3000040eb000200010000c4290089
:1008d000010020007a030700b242800061c0b3002b
:1008e0000040eb000200010000c4290001002000cc
:1008f00073030700b2428000f1c0b3000040eb0078
:100900000200010000c42900010020006c03070060
:100910000000eb00000f7800050037000080200089
:100920001e00400001c2b300014878001e0fe8001d
:10093000f00420009e007800808f5000f7ff340004
:100940000000eb00804288000080fa0000000600f2
:100950000200fa00004f7800cc82a900cca2a800c7
:100960001e80fb00e800600010c0b3000100e00042
:1009700001003c000040eb000080fb0061006000d3
:100980004300dd00611680000130a100010070000d
:10099000601688001e80fb00e400600010c0b300f9
:1009a0000100e00001003c000040eb000080fb0083
:1009b000610060004200dd00611680000120a1009e
:1009c00001007000601688001e80fb00e2006000dd
:1009d00010c0b3000100e00001003c000040eb004b
:1009e0000080fb0061006000000040006116800094
:1009f0000110a10001007000601688001e80fb003d
:100a0000e100600010c0b3000100e00001003c0004
:100a10000040eb000080fb00610060006116800078
:100a20000100a1000100700060168800cca2a9009e
:100a30000080fa00000006000200fa00004f780073
:100a4000114798009e40780061c0600061406000de
:100a5000614060000080fb00610060004400dd0038
:100a6000611680000140a10001007000601688003e
:100a7000cca2a8001e4090000080fb004700de00d2
:100a8000004078000080fb00610060004300dd0052
:100a9000611680000130a10001007000601688001e
:100aa0001e4090008080fb00000420000080600059
:100ab00000f0a7000000ea000000ea004f00de009e
:100ac000004078000080fb00610060004200dd0013
:100ad000611680000120a1000100700060168800ee
:100ae0001e4090008080fb0000022000008060001b
:100af00000f0a7000000ea000000ea004f00de005e
:100b0000004078000080fb006100600000004000b1
:100b1000611680000110a1000100700060168800bd
:100b20001e4090000080fb007000600000f0a700f5
:100b30000000ea000000ea004f00de0000407800fc
:100b40000080fb0061006000611680000100a100d0
:100b50000100700060168800cca2a90000192000d6
:100b600001002000d6020700cca2a8001e40900081
:100b70000080fb006800600000f0a7000000ea00b1
:100b80000000ea004f00de00004078000080fb001b
:100b9000610060004300dd00611680000130a100ab
:100ba00001007000601688001e4090000080fb006d
:100bb0006400600000f0a7000000ea000000ea0006
:100bc0004f00de00004078000080fb006100600004
:100bd0004200dd00611680000120a10001007000cc
:100be000601688001e4090000080fb0062006000dc
:100bf00000f0a7000000ea000000ea004f00de005d
:100c0000004078000080fb006100600000004000b0
:100c1000611680000110a1000100700060168800bc
:100c20001e409000614060006140600061406000d3
:100c30000080fb0061006000611680000100a100df
:100c40000100700060168800cca2a9000080fa00a4
:100c5000000006000200fa00004f7800cc82a800d5
:100c6000cca2a8001e80fb004700de0000407800f8
:100c70000080fb00610060004300dd006116800021
:100c80000130a10001007000601688009e00fb008a
:100c9000000420000080600000f0a7000000ea00cf
:100ca0000000ea004f00de00004078000080fb00fa
:100cb000610060004200dd00611680000120a1009b
:100cc00001007000601688009e00fb0000022000fa
:100cd0000080600000f0a7000000ea000000ea00c9
:100ce0004f00de00004078000080fb0061006000e3
:100cf00000004000611680000110a100010070009a
:100d0000601688001e00fb007000600000f0a70065
:100d10000000ea000000ea004f00de00004078001a
:100d20000080fb0061006000611680000100a100ee
:100d30000100700060168800800c20000100200077
:100d40005f020700cca2a9000019200001002000ca
:100d50005b020700cca2a8001e00fb006800600038
:100d600000f0a7000000ea000000ea004f00de00eb
:100d7000004078000080fb00610060004300dd005f
:100d8000611680000130a10001007000601688002b
:100d90001e00fb006400600000f0a7000000ea00f5
:100da0000000ea004f00de00004078000080fb00f9
:100db000610060004200dd00611680000120a1009a
:100dc00001007000601688001e00fb0062006000d9
:100dd00000f0a7000000ea000000ea004f00de007b
:100de000004078000080fb006100600000004000cf
:100df000611680000110a1000100700060168800db
:100e00001e40780061406000614060006140600009
:100e10000080fb0061006000611680000100a100fd
:100e20000100700060168800800c20000100200086
:100e300023020700cca2a900800c200001002000a2
:100e40001f0207000080fa00000006000600fa00fa
:100e50001007980081428000010f78000f003700d2
:100e6000c3428000230798001e017800000520007f
:100e700080017800110009000301d8008000fd0006
:100e80000001780000802000000041001040780040
:100e9000ae009000010001001e0fe8001e0090004f
:100ea0000005b0009e0f5000edff3c009e01900039
:100eb000834288000080fa00000006000600fa0065
:100ec00020479800210798002e4090000004e00081
:100ed0000200320080c2b300010037000040eb0086
:100ee000204798000000eb00000f78000b0037004f
:100ef0002e4090000080fb001e0140001e00780084
:100f0000ae009000008040009040780000802000fb
:100f100000004100014878001e0fe8001e00780024
:100f2000ae00900000804000104078000004e00017
:100f3000efff3a00080037002e4090000080fb00d1
:100f40009e004000008020000080400001c2b300ed
:100f5000014878001e0fe800700220009e00780013
:100f6000808f5000f4ff34000080fa00000006007b
:100f70000200fa000040eb00004f78008042800041
:100f8000004f780007003700c14280001e81fb003f
:100f900000802000000041001040780001000100a6
:100fa0001e4fe800f0c4b3009e40780080cf500090
:100fb000f5ff36000040eb00004f780007003700d7
:100fc000c14280001e81fb00008020000000410023
:100fd00010407800010001001e4fe8009e80fb00d9
:100fe00080428000808f5000f5ff35000080fa00bd
:100ff000000006000400fa00000f780011079800b6
:10100000e24280009e0078000040eb0002000100f8
:10101000e24280009e00900010c0b3000200010078
:10102000f0428000000001000080fa00000006008d
:101030000000fa0021c0b3000040eb007efe070074
:1010400000d42000310020009d0107000080fa003c
:10105000000006000000fa0002438000e13328008f
:10106000e0332800020001000080fa0000000600c2
:101070000200fa00000f78001e007800213f2000d7
:10108000112898001e007800814a2000212898002d
:101090001e007800c1512000312898001e00780001
:1010a000a1622000412898001e0078006172200093
:1010b000512898001e007800e175200061289800f2
:1010c0001e007800817b2000712898001e007800a7
:1010d000a17f2000013098001e007800a18220002e
:1010e000113098000080fa00000006000000fa00ad
:1010f00020438000000001000080fa00000006008c
:101100000400fa00100798000040eb00004f780040
:10111000304380000000010002003700404380009f
:101120000000010081438000d0438000004078002f
:10113000010001000000e000f8ff3a008143800058
:101140001e0090004800de00004078000100010011
:10115000814380001e0090000040780001000100e3
:10116000404380000000010081438000d0438000a4
:10117000004078000040e80001000100904380003a
:1011800000000100004f7800704380000000010063
:1011900050438000000001001e80fb000080fa0028
:1011a000000006000400fa00000f78001107980004
:1011b00030438000000001000200370040438000ff
:1011c0000000010081438000d0438000004078008f
:1011d000010001000000e000f8ff3a0081438000b8
:1011e0001e0078004800de00004078000100010089
:1011f000814380001e00780000407800010001005b
:10120000814380001e009000004078000100010032
:1012100050438000000001000080fa00000006003a
:101220000600fa0010079800210798000040eb0024
:10123000004f78000b003700b24380001e80fb0097
:10124000ae00900000804000104078008000fb005d
:101250009e81fb001e009000008041000200010002
:101260001e4fe8001e80fb00ae0090000080400092
:10127000104078000004e000efff3a000080fa0020
:10128000000006000800fa001007980021079800e7
:10129000320798000040eb00004f78000b00370049
:1012a000b2438000ae0090001e80fb000080400032
:1012b000104078008080fb009e81fb001e009000a3
:1012c00000804100020001001e4fe8009e80fb00ec
:1012d0003e009000808f5000f1ff39000080fa003e
:1012e000000006000600fa00000f780011079800c1
:1012f00022079800134480002e0190009e00900069
:101300001e007800030001000080fa0000000600c3
:101310000800fa00881f780010079800210798003d
:10132000320798000040eb00004f78000b003700b8
:10133000ae0090001e80fb0000844000a1438000ae
:101340001e81fb001e009000000041000100010012
:1013500000407800004c78001e4fe8009e80fb00a3
:101360003e009000808f5000f1ff39004f0478005c
:101370000080fa00000006000000fa005002200081
:101380002010880007a2a80006a2a9000742a90011
:101390000742a9009600a80007e2a8000080fa0012
:1013a000000006000000fa000602a800000000008d
:1013b00030048000620060000000e000fcff3200aa
:1013c0008620a9000080fa00000006000000fa0054
:1013d0003110800000fe2f00008060003010880077
:1013e0000622a800000000003004800062006000b7
:1013f0000000e000fcff32008620a9000080fa0017
:10140000000006000000fa003110800000fe2f00ee
:1014100000806000301088000642a8000000000034
:1014200030048000620060000000e000fcff320039
:101430008620a9000080fa00000006000000fa00e3
:101440003110800000fe2f00008060003010880006
:1014500006a2a9000682a800000000003004800057
:10146000620060000000e000fcff32008620a9005e
:101470000080fa00000006000000fa003110800031
:1014800000fe2f00008060003010880006a2a80037
:101490000682a800000000003004800062006000a6
:1014a0000000e000fcff32008620a9000080fa0066
:1014b000000006000200fa00004f78001e80fb00ca
:1014c00010108800000000003004800062006000fe
:1014d0000000e000fcff32008620a90040108000e0
:1014e0004f00de00004078000080fb000080fa0022
:1014f000000006000000fa003110800000fe2f00fe
:1015000000806000301088000662a8000000000023
:1015100030048000620060000000e000fcff320048
:101520008620a900001080000080fa00000006005c
:020000040000fa
:10153000000800006400000002000000000000003d
:10154000000000000000000000000000000000009b
:10155000000000000000000000000000000000008b
:10156000000000000000000000000000000000007b
:10157000000000000000000000000000000000006b
:10158000000000000000000000000000000000005b
:10159000000000000000000000000000000000004b
:1015a000000000000000000000f20300a8041c007e
:1015b000052a060026075e0007b80700fa070000a4
:1015c000000000006408000020000000020000008d
:1015d000bc09d20009e60900020a1e000a3c0a0002
:1015e0005a0a7a000a800800d208760008a0000093
:1015f00010094200097209008809000084080000ef
:101600001000000002000000bc09d20009e6090039
:10161000020a1e000a3c0a005a0a7a000a00000068
:0416200000000000c6
:020000040000fa
:101624001e00fa0030332800e20047000a000900d7
:10163400b0587800b000b100f0002000000f78002e
:10164400c0438000000001009042800000000100bf
:10165400e24380001e0078008e80e8000200010052
:10166400034480001e007800ed004700a200200023
:10167400030001000040eb0070579800e242800034
:101684006d004700800078000040eb00020001007c
:10169400e2428000e132280010c0b30002000100e1
:1016a400a080200090407800f0822000014878005b
:0c16b400f042800000000100ffff370042
:020000040000fa
:1016c000f03fb1000180b10006003500ee030900d3
:1016d00000000000403fb1000180b100fbff3d0071
:1016e0001000b000203fb00002003500008009006b
:0816f0000000000000000600ec
:020000040000fa
:020000040001f9
:0457f400fffc0000b6
:020000040000fa
:020000040001f9
:0457f8009f8100008d
:020000040000fa
:020000040001f9
:0457fc007fbf00006b
:00000001FF
